{
	"SimpleStorage.sol": {
		"SimpleStorage": {
			"abi": [
				{
					"inputs": [
						{
							"internalType": "uint256",
							"name": "",
							"type": "uint256"
						}
					],
					"name": "ListOfPeople",
					"outputs": [
						{
							"internalType": "uint256",
							"name": "favoriteNumber",
							"type": "uint256"
						},
						{
							"internalType": "string",
							"name": "name",
							"type": "string"
						}
					],
					"stateMutability": "view",
					"type": "function"
				},
				{
					"inputs": [
						{
							"internalType": "string",
							"name": "_name",
							"type": "string"
						},
						{
							"internalType": "uint256",
							"name": "_favoriteNumber",
							"type": "uint256"
						}
					],
					"name": "addPerson",
					"outputs": [],
					"stateMutability": "nonpayable",
					"type": "function"
				},
				{
					"inputs": [
						{
							"internalType": "string",
							"name": "",
							"type": "string"
						}
					],
					"name": "nameTofavoriteNumber",
					"outputs": [
						{
							"internalType": "uint256",
							"name": "",
							"type": "uint256"
						}
					],
					"stateMutability": "view",
					"type": "function"
				},
				{
					"inputs": [],
					"name": "retrieve",
					"outputs": [
						{
							"internalType": "uint256",
							"name": "",
							"type": "uint256"
						}
					],
					"stateMutability": "view",
					"type": "function"
				},
				{
					"inputs": [
						{
							"internalType": "uint256",
							"name": "_favoriteNumber",
							"type": "uint256"
						}
					],
					"name": "store",
					"outputs": [],
					"stateMutability": "nonpayable",
					"type": "function"
				}
			],
			"devdoc": {
				"kind": "dev",
				"methods": {},
				"version": 1
			},
			"evm": {
				"assembly": "    /* \"SimpleStorage.sol\":168:1061  contract SimpleStorage{... */\n  mstore(0x40, 0x80)\n  callvalue\n  dup1\n  iszero\n  tag_1\n  jumpi\n  0x00\n  dup1\n  revert\ntag_1:\n  pop\n  dataSize(sub_0)\n  dup1\n  dataOffset(sub_0)\n  0x00\n  codecopy\n  0x00\n  return\nstop\n\nsub_0: assembly {\n        /* \"SimpleStorage.sol\":168:1061  contract SimpleStorage{... */\n      mstore(0x40, 0x80)\n      callvalue\n      dup1\n      iszero\n      tag_1\n      jumpi\n      0x00\n      dup1\n      revert\n    tag_1:\n      pop\n      jumpi(tag_2, lt(calldatasize, 0x04))\n      shr(0xe0, calldataload(0x00))\n      dup1\n      0x03a43009\n      eq\n      tag_3\n      jumpi\n      dup1\n      0x2e64cec1\n      eq\n      tag_4\n      jumpi\n      dup1\n      0x472c40b4\n      eq\n      tag_5\n      jumpi\n      dup1\n      0x6057361d\n      eq\n      tag_6\n      jumpi\n      dup1\n      0x6f760f41\n      eq\n      tag_7\n      jumpi\n    tag_2:\n      0x00\n      dup1\n      revert\n        /* \"SimpleStorage.sol\":583:636  mapping (string=>uint256) public nameTofavoriteNumber */\n    tag_3:\n      tag_8\n      0x04\n      dup1\n      calldatasize\n      sub\n      dup2\n      add\n      swap1\n      tag_9\n      swap2\n      swap1\n      tag_10\n      jump\t// in\n    tag_9:\n      tag_11\n      jump\t// in\n    tag_8:\n      mload(0x40)\n      tag_12\n      swap2\n      swap1\n      tag_13\n      jump\t// in\n    tag_12:\n      mload(0x40)\n      dup1\n      swap2\n      sub\n      swap1\n      return\n        /* \"SimpleStorage.sol\":759:849  function retrieve() public view returns(uint256){... */\n    tag_4:\n      tag_14\n      tag_15\n      jump\t// in\n    tag_14:\n      mload(0x40)\n      tag_16\n      swap2\n      swap1\n      tag_13\n      jump\t// in\n    tag_16:\n      mload(0x40)\n      dup1\n      swap2\n      sub\n      swap1\n      return\n        /* \"SimpleStorage.sol\":548:576  Person[] public ListOfPeople */\n    tag_5:\n      tag_17\n      0x04\n      dup1\n      calldatasize\n      sub\n      dup2\n      add\n      swap1\n      tag_18\n      swap2\n      swap1\n      tag_19\n      jump\t// in\n    tag_18:\n      tag_20\n      jump\t// in\n    tag_17:\n      mload(0x40)\n      tag_21\n      swap3\n      swap2\n      swap1\n      tag_22\n      jump\t// in\n    tag_21:\n      mload(0x40)\n      dup1\n      swap2\n      sub\n      swap1\n      return\n        /* \"SimpleStorage.sol\":646:753  function store(uint256 _favoriteNumber) public virtual{... */\n    tag_6:\n      tag_23\n      0x04\n      dup1\n      calldatasize\n      sub\n      dup2\n      add\n      swap1\n      tag_24\n      swap2\n      swap1\n      tag_19\n      jump\t// in\n    tag_24:\n      tag_25\n      jump\t// in\n    tag_23:\n      stop\n        /* \"SimpleStorage.sol\":862:1058  function addPerson(string memory _name, uint256 _favoriteNumber) public {... */\n    tag_7:\n      tag_26\n      0x04\n      dup1\n      calldatasize\n      sub\n      dup2\n      add\n      swap1\n      tag_27\n      swap2\n      swap1\n      tag_28\n      jump\t// in\n    tag_27:\n      tag_29\n      jump\t// in\n    tag_26:\n      stop\n        /* \"SimpleStorage.sol\":583:636  mapping (string=>uint256) public nameTofavoriteNumber */\n    tag_11:\n      0x02\n      dup2\n      dup1\n      mload\n      0x20\n      dup2\n      add\n      dup3\n      add\n      dup1\n      mload\n      dup5\n      dup3\n      mstore\n      0x20\n      dup4\n      add\n      0x20\n      dup6\n      add\n      keccak256\n      dup2\n      dup4\n      mstore\n      dup1\n      swap6\n      pop\n      pop\n      pop\n      pop\n      pop\n      pop\n      0x00\n      swap2\n      pop\n      swap1\n      pop\n      sload\n      dup2\n      jump\t// out\n        /* \"SimpleStorage.sol\":759:849  function retrieve() public view returns(uint256){... */\n    tag_15:\n        /* \"SimpleStorage.sol\":799:806  uint256 */\n      0x00\n        /* \"SimpleStorage.sol\":825:841  myfavoriteNumber */\n      dup1\n      sload\n        /* \"SimpleStorage.sol\":818:841  return myfavoriteNumber */\n      swap1\n      pop\n        /* \"SimpleStorage.sol\":759:849  function retrieve() public view returns(uint256){... */\n      swap1\n      jump\t// out\n        /* \"SimpleStorage.sol\":548:576  Person[] public ListOfPeople */\n    tag_20:\n      0x01\n      dup2\n      dup2\n      sload\n      dup2\n      lt\n      tag_31\n      jumpi\n      0x00\n      dup1\n      revert\n    tag_31:\n      swap1\n      0x00\n      mstore\n      keccak256(0x00, 0x20)\n      swap1\n      0x02\n      mul\n      add\n      0x00\n      swap2\n      pop\n      swap1\n      pop\n      dup1\n      0x00\n      add\n      sload\n      swap1\n      dup1\n      0x01\n      add\n      dup1\n      sload\n      tag_33\n      swap1\n      tag_34\n      jump\t// in\n    tag_33:\n      dup1\n      0x1f\n      add\n      0x20\n      dup1\n      swap2\n      div\n      mul\n      0x20\n      add\n      mload(0x40)\n      swap1\n      dup2\n      add\n      0x40\n      mstore\n      dup1\n      swap3\n      swap2\n      swap1\n      dup2\n      dup2\n      mstore\n      0x20\n      add\n      dup3\n      dup1\n      sload\n      tag_35\n      swap1\n      tag_34\n      jump\t// in\n    tag_35:\n      dup1\n      iszero\n      tag_36\n      jumpi\n      dup1\n      0x1f\n      lt\n      tag_37\n      jumpi\n      0x0100\n      dup1\n      dup4\n      sload\n      div\n      mul\n      dup4\n      mstore\n      swap2\n      0x20\n      add\n      swap2\n      jump(tag_36)\n    tag_37:\n      dup3\n      add\n      swap2\n      swap1\n      0x00\n      mstore\n      keccak256(0x00, 0x20)\n      swap1\n    tag_38:\n      dup2\n      sload\n      dup2\n      mstore\n      swap1\n      0x01\n      add\n      swap1\n      0x20\n      add\n      dup1\n      dup4\n      gt\n      tag_38\n      jumpi\n      dup3\n      swap1\n      sub\n      0x1f\n      and\n      dup3\n      add\n      swap2\n    tag_36:\n      pop\n      pop\n      pop\n      pop\n      pop\n      swap1\n      pop\n      dup3\n      jump\t// out\n        /* \"SimpleStorage.sol\":646:753  function store(uint256 _favoriteNumber) public virtual{... */\n    tag_25:\n        /* \"SimpleStorage.sol\":729:744  _favoriteNumber */\n      dup1\n        /* \"SimpleStorage.sol\":712:728  myfavoriteNumber */\n      0x00\n        /* \"SimpleStorage.sol\":712:744  myfavoriteNumber=_favoriteNumber */\n      dup2\n      swap1\n      sstore\n      pop\n        /* \"SimpleStorage.sol\":646:753  function store(uint256 _favoriteNumber) public virtual{... */\n      pop\n      jump\t// out\n        /* \"SimpleStorage.sol\":862:1058  function addPerson(string memory _name, uint256 _favoriteNumber) public {... */\n    tag_29:\n        /* \"SimpleStorage.sol\":950:962  ListOfPeople */\n      0x01\n        /* \"SimpleStorage.sol\":968:997  Person(_favoriteNumber,_name) */\n      mload(0x40)\n      dup1\n      0x40\n      add\n      0x40\n      mstore\n      dup1\n        /* \"SimpleStorage.sol\":975:990  _favoriteNumber */\n      dup4\n        /* \"SimpleStorage.sol\":968:997  Person(_favoriteNumber,_name) */\n      dup2\n      mstore\n      0x20\n      add\n        /* \"SimpleStorage.sol\":991:996  _name */\n      dup5\n        /* \"SimpleStorage.sol\":968:997  Person(_favoriteNumber,_name) */\n      dup2\n      mstore\n      pop\n        /* \"SimpleStorage.sol\":950:998  ListOfPeople.push(Person(_favoriteNumber,_name)) */\n      swap1\n      dup1\n      0x01\n      dup2\n      sload\n      add\n      dup1\n      dup3\n      sstore\n      dup1\n      swap2\n      pop\n      pop\n      0x01\n      swap1\n      sub\n      swap1\n      0x00\n      mstore\n      keccak256(0x00, 0x20)\n      swap1\n      0x02\n      mul\n      add\n      0x00\n      swap1\n      swap2\n      swap1\n      swap2\n      swap1\n      swap2\n      pop\n      0x00\n      dup3\n      add\n      mload\n      dup2\n      0x00\n      add\n      sstore\n      0x20\n      dup3\n      add\n      mload\n      dup2\n      0x01\n      add\n      swap1\n      dup2\n      tag_42\n      swap2\n      swap1\n      tag_43\n      jump\t// in\n    tag_42:\n      pop\n      pop\n      pop\n        /* \"SimpleStorage.sol\":1035:1050  _favoriteNumber */\n      dup1\n        /* \"SimpleStorage.sol\":1007:1027  nameTofavoriteNumber */\n      0x02\n        /* \"SimpleStorage.sol\":1028:1033  _name */\n      dup4\n        /* \"SimpleStorage.sol\":1007:1034  nameTofavoriteNumber[_name] */\n      mload(0x40)\n      tag_44\n      swap2\n      swap1\n      tag_45\n      jump\t// in\n    tag_44:\n      swap1\n      dup2\n      mstore\n      0x20\n      add\n      mload(0x40)\n      dup1\n      swap2\n      sub\n      swap1\n      keccak256\n        /* \"SimpleStorage.sol\":1007:1050  nameTofavoriteNumber[_name]=_favoriteNumber */\n      dup2\n      swap1\n      sstore\n      pop\n        /* \"SimpleStorage.sol\":862:1058  function addPerson(string memory _name, uint256 _favoriteNumber) public {... */\n      pop\n      pop\n      jump\t// out\n        /* \"#utility.yul\":7:82   */\n    tag_46:\n        /* \"#utility.yul\":40:46   */\n      0x00\n        /* \"#utility.yul\":73:75   */\n      0x40\n        /* \"#utility.yul\":67:76   */\n      mload\n        /* \"#utility.yul\":57:76   */\n      swap1\n      pop\n        /* \"#utility.yul\":7:82   */\n      swap1\n      jump\t// out\n        /* \"#utility.yul\":88:205   */\n    tag_47:\n        /* \"#utility.yul\":197:198   */\n      0x00\n        /* \"#utility.yul\":194:195   */\n      dup1\n        /* \"#utility.yul\":187:199   */\n      revert\n        /* \"#utility.yul\":211:328   */\n    tag_48:\n        /* \"#utility.yul\":320:321   */\n      0x00\n        /* \"#utility.yul\":317:318   */\n      dup1\n        /* \"#utility.yul\":310:322   */\n      revert\n        /* \"#utility.yul\":334:451   */\n    tag_49:\n        /* \"#utility.yul\":443:444   */\n      0x00\n        /* \"#utility.yul\":440:441   */\n      dup1\n        /* \"#utility.yul\":433:445   */\n      revert\n        /* \"#utility.yul\":457:574   */\n    tag_50:\n        /* \"#utility.yul\":566:567   */\n      0x00\n        /* \"#utility.yul\":563:564   */\n      dup1\n        /* \"#utility.yul\":556:568   */\n      revert\n        /* \"#utility.yul\":580:682   */\n    tag_51:\n        /* \"#utility.yul\":621:627   */\n      0x00\n        /* \"#utility.yul\":672:674   */\n      0x1f\n        /* \"#utility.yul\":668:675   */\n      not\n        /* \"#utility.yul\":663:665   */\n      0x1f\n        /* \"#utility.yul\":656:661   */\n      dup4\n        /* \"#utility.yul\":652:666   */\n      add\n        /* \"#utility.yul\":648:676   */\n      and\n        /* \"#utility.yul\":638:676   */\n      swap1\n      pop\n        /* \"#utility.yul\":580:682   */\n      swap2\n      swap1\n      pop\n      jump\t// out\n        /* \"#utility.yul\":688:868   */\n    tag_52:\n        /* \"#utility.yul\":736:813   */\n      0x4e487b7100000000000000000000000000000000000000000000000000000000\n        /* \"#utility.yul\":733:734   */\n      0x00\n        /* \"#utility.yul\":726:814   */\n      mstore\n        /* \"#utility.yul\":833:837   */\n      0x41\n        /* \"#utility.yul\":830:831   */\n      0x04\n        /* \"#utility.yul\":823:838   */\n      mstore\n        /* \"#utility.yul\":857:861   */\n      0x24\n        /* \"#utility.yul\":854:855   */\n      0x00\n        /* \"#utility.yul\":847:862   */\n      revert\n        /* \"#utility.yul\":874:1155   */\n    tag_53:\n        /* \"#utility.yul\":957:984   */\n      tag_94\n        /* \"#utility.yul\":979:983   */\n      dup3\n        /* \"#utility.yul\":957:984   */\n      tag_51\n      jump\t// in\n    tag_94:\n        /* \"#utility.yul\":949:955   */\n      dup2\n        /* \"#utility.yul\":945:985   */\n      add\n        /* \"#utility.yul\":1087:1093   */\n      dup2\n        /* \"#utility.yul\":1075:1085   */\n      dup2\n        /* \"#utility.yul\":1072:1094   */\n      lt\n        /* \"#utility.yul\":1051:1069   */\n      0xffffffffffffffff\n        /* \"#utility.yul\":1039:1049   */\n      dup3\n        /* \"#utility.yul\":1036:1070   */\n      gt\n        /* \"#utility.yul\":1033:1095   */\n      or\n        /* \"#utility.yul\":1030:1118   */\n      iszero\n      tag_95\n      jumpi\n        /* \"#utility.yul\":1098:1116   */\n      tag_96\n      tag_52\n      jump\t// in\n    tag_96:\n        /* \"#utility.yul\":1030:1118   */\n    tag_95:\n        /* \"#utility.yul\":1138:1148   */\n      dup1\n        /* \"#utility.yul\":1134:1136   */\n      0x40\n        /* \"#utility.yul\":1127:1149   */\n      mstore\n        /* \"#utility.yul\":917:1155   */\n      pop\n        /* \"#utility.yul\":874:1155   */\n      pop\n      pop\n      jump\t// out\n        /* \"#utility.yul\":1161:1290   */\n    tag_54:\n        /* \"#utility.yul\":1195:1201   */\n      0x00\n        /* \"#utility.yul\":1222:1242   */\n      tag_98\n      tag_46\n      jump\t// in\n    tag_98:\n        /* \"#utility.yul\":1212:1242   */\n      swap1\n      pop\n        /* \"#utility.yul\":1251:1284   */\n      tag_99\n        /* \"#utility.yul\":1279:1283   */\n      dup3\n        /* \"#utility.yul\":1271:1277   */\n      dup3\n        /* \"#utility.yul\":1251:1284   */\n      tag_53\n      jump\t// in\n    tag_99:\n        /* \"#utility.yul\":1161:1290   */\n      swap2\n      swap1\n      pop\n      jump\t// out\n        /* \"#utility.yul\":1296:1604   */\n    tag_55:\n        /* \"#utility.yul\":1358:1362   */\n      0x00\n        /* \"#utility.yul\":1448:1466   */\n      0xffffffffffffffff\n        /* \"#utility.yul\":1440:1446   */\n      dup3\n        /* \"#utility.yul\":1437:1467   */\n      gt\n        /* \"#utility.yul\":1434:1490   */\n      iszero\n      tag_101\n      jumpi\n        /* \"#utility.yul\":1470:1488   */\n      tag_102\n      tag_52\n      jump\t// in\n    tag_102:\n        /* \"#utility.yul\":1434:1490   */\n    tag_101:\n        /* \"#utility.yul\":1508:1537   */\n      tag_103\n        /* \"#utility.yul\":1530:1536   */\n      dup3\n        /* \"#utility.yul\":1508:1537   */\n      tag_51\n      jump\t// in\n    tag_103:\n        /* \"#utility.yul\":1500:1537   */\n      swap1\n      pop\n        /* \"#utility.yul\":1592:1596   */\n      0x20\n        /* \"#utility.yul\":1586:1590   */\n      dup2\n        /* \"#utility.yul\":1582:1597   */\n      add\n        /* \"#utility.yul\":1574:1597   */\n      swap1\n      pop\n        /* \"#utility.yul\":1296:1604   */\n      swap2\n      swap1\n      pop\n      jump\t// out\n        /* \"#utility.yul\":1610:1756   */\n    tag_56:\n        /* \"#utility.yul\":1707:1713   */\n      dup3\n        /* \"#utility.yul\":1702:1705   */\n      dup2\n        /* \"#utility.yul\":1697:1700   */\n      dup4\n        /* \"#utility.yul\":1684:1714   */\n      calldatacopy\n        /* \"#utility.yul\":1748:1749   */\n      0x00\n        /* \"#utility.yul\":1739:1745   */\n      dup4\n        /* \"#utility.yul\":1734:1737   */\n      dup4\n        /* \"#utility.yul\":1730:1746   */\n      add\n        /* \"#utility.yul\":1723:1750   */\n      mstore\n        /* \"#utility.yul\":1610:1756   */\n      pop\n      pop\n      pop\n      jump\t// out\n        /* \"#utility.yul\":1762:2187   */\n    tag_57:\n        /* \"#utility.yul\":1840:1845   */\n      0x00\n        /* \"#utility.yul\":1865:1931   */\n      tag_106\n        /* \"#utility.yul\":1881:1930   */\n      tag_107\n        /* \"#utility.yul\":1923:1929   */\n      dup5\n        /* \"#utility.yul\":1881:1930   */\n      tag_55\n      jump\t// in\n    tag_107:\n        /* \"#utility.yul\":1865:1931   */\n      tag_54\n      jump\t// in\n    tag_106:\n        /* \"#utility.yul\":1856:1931   */\n      swap1\n      pop\n        /* \"#utility.yul\":1954:1960   */\n      dup3\n        /* \"#utility.yul\":1947:1952   */\n      dup2\n        /* \"#utility.yul\":1940:1961   */\n      mstore\n        /* \"#utility.yul\":1992:1996   */\n      0x20\n        /* \"#utility.yul\":1985:1990   */\n      dup2\n        /* \"#utility.yul\":1981:1997   */\n      add\n        /* \"#utility.yul\":2030:2033   */\n      dup5\n        /* \"#utility.yul\":2021:2027   */\n      dup5\n        /* \"#utility.yul\":2016:2019   */\n      dup5\n        /* \"#utility.yul\":2012:2028   */\n      add\n        /* \"#utility.yul\":2009:2034   */\n      gt\n        /* \"#utility.yul\":2006:2118   */\n      iszero\n      tag_108\n      jumpi\n        /* \"#utility.yul\":2037:2116   */\n      tag_109\n      tag_50\n      jump\t// in\n    tag_109:\n        /* \"#utility.yul\":2006:2118   */\n    tag_108:\n        /* \"#utility.yul\":2127:2181   */\n      tag_110\n        /* \"#utility.yul\":2174:2180   */\n      dup5\n        /* \"#utility.yul\":2169:2172   */\n      dup3\n        /* \"#utility.yul\":2164:2167   */\n      dup6\n        /* \"#utility.yul\":2127:2181   */\n      tag_56\n      jump\t// in\n    tag_110:\n        /* \"#utility.yul\":1846:2187   */\n      pop\n        /* \"#utility.yul\":1762:2187   */\n      swap4\n      swap3\n      pop\n      pop\n      pop\n      jump\t// out\n        /* \"#utility.yul\":2207:2547   */\n    tag_58:\n        /* \"#utility.yul\":2263:2268   */\n      0x00\n        /* \"#utility.yul\":2312:2315   */\n      dup3\n        /* \"#utility.yul\":2305:2309   */\n      0x1f\n        /* \"#utility.yul\":2297:2303   */\n      dup4\n        /* \"#utility.yul\":2293:2310   */\n      add\n        /* \"#utility.yul\":2289:2316   */\n      slt\n        /* \"#utility.yul\":2279:2401   */\n      tag_112\n      jumpi\n        /* \"#utility.yul\":2320:2399   */\n      tag_113\n      tag_49\n      jump\t// in\n    tag_113:\n        /* \"#utility.yul\":2279:2401   */\n    tag_112:\n        /* \"#utility.yul\":2437:2443   */\n      dup2\n        /* \"#utility.yul\":2424:2444   */\n      calldataload\n        /* \"#utility.yul\":2462:2541   */\n      tag_114\n        /* \"#utility.yul\":2537:2540   */\n      dup5\n        /* \"#utility.yul\":2529:2535   */\n      dup3\n        /* \"#utility.yul\":2522:2526   */\n      0x20\n        /* \"#utility.yul\":2514:2520   */\n      dup7\n        /* \"#utility.yul\":2510:2527   */\n      add\n        /* \"#utility.yul\":2462:2541   */\n      tag_57\n      jump\t// in\n    tag_114:\n        /* \"#utility.yul\":2453:2541   */\n      swap2\n      pop\n        /* \"#utility.yul\":2269:2547   */\n      pop\n        /* \"#utility.yul\":2207:2547   */\n      swap3\n      swap2\n      pop\n      pop\n      jump\t// out\n        /* \"#utility.yul\":2553:3062   */\n    tag_10:\n        /* \"#utility.yul\":2622:2628   */\n      0x00\n        /* \"#utility.yul\":2671:2673   */\n      0x20\n        /* \"#utility.yul\":2659:2668   */\n      dup3\n        /* \"#utility.yul\":2650:2657   */\n      dup5\n        /* \"#utility.yul\":2646:2669   */\n      sub\n        /* \"#utility.yul\":2642:2674   */\n      slt\n        /* \"#utility.yul\":2639:2758   */\n      iszero\n      tag_116\n      jumpi\n        /* \"#utility.yul\":2677:2756   */\n      tag_117\n      tag_47\n      jump\t// in\n    tag_117:\n        /* \"#utility.yul\":2639:2758   */\n    tag_116:\n        /* \"#utility.yul\":2825:2826   */\n      0x00\n        /* \"#utility.yul\":2814:2823   */\n      dup3\n        /* \"#utility.yul\":2810:2827   */\n      add\n        /* \"#utility.yul\":2797:2828   */\n      calldataload\n        /* \"#utility.yul\":2855:2873   */\n      0xffffffffffffffff\n        /* \"#utility.yul\":2847:2853   */\n      dup2\n        /* \"#utility.yul\":2844:2874   */\n      gt\n        /* \"#utility.yul\":2841:2958   */\n      iszero\n      tag_118\n      jumpi\n        /* \"#utility.yul\":2877:2956   */\n      tag_119\n      tag_48\n      jump\t// in\n    tag_119:\n        /* \"#utility.yul\":2841:2958   */\n    tag_118:\n        /* \"#utility.yul\":2982:3045   */\n      tag_120\n        /* \"#utility.yul\":3037:3044   */\n      dup5\n        /* \"#utility.yul\":3028:3034   */\n      dup3\n        /* \"#utility.yul\":3017:3026   */\n      dup6\n        /* \"#utility.yul\":3013:3035   */\n      add\n        /* \"#utility.yul\":2982:3045   */\n      tag_58\n      jump\t// in\n    tag_120:\n        /* \"#utility.yul\":2972:3045   */\n      swap2\n      pop\n        /* \"#utility.yul\":2768:3055   */\n      pop\n        /* \"#utility.yul\":2553:3062   */\n      swap3\n      swap2\n      pop\n      pop\n      jump\t// out\n        /* \"#utility.yul\":3068:3145   */\n    tag_59:\n        /* \"#utility.yul\":3105:3112   */\n      0x00\n        /* \"#utility.yul\":3134:3139   */\n      dup2\n        /* \"#utility.yul\":3123:3139   */\n      swap1\n      pop\n        /* \"#utility.yul\":3068:3145   */\n      swap2\n      swap1\n      pop\n      jump\t// out\n        /* \"#utility.yul\":3151:3269   */\n    tag_60:\n        /* \"#utility.yul\":3238:3262   */\n      tag_123\n        /* \"#utility.yul\":3256:3261   */\n      dup2\n        /* \"#utility.yul\":3238:3262   */\n      tag_59\n      jump\t// in\n    tag_123:\n        /* \"#utility.yul\":3233:3236   */\n      dup3\n        /* \"#utility.yul\":3226:3263   */\n      mstore\n        /* \"#utility.yul\":3151:3269   */\n      pop\n      pop\n      jump\t// out\n        /* \"#utility.yul\":3275:3497   */\n    tag_13:\n        /* \"#utility.yul\":3368:3372   */\n      0x00\n        /* \"#utility.yul\":3406:3408   */\n      0x20\n        /* \"#utility.yul\":3395:3404   */\n      dup3\n        /* \"#utility.yul\":3391:3409   */\n      add\n        /* \"#utility.yul\":3383:3409   */\n      swap1\n      pop\n        /* \"#utility.yul\":3419:3490   */\n      tag_125\n        /* \"#utility.yul\":3487:3488   */\n      0x00\n        /* \"#utility.yul\":3476:3485   */\n      dup4\n        /* \"#utility.yul\":3472:3489   */\n      add\n        /* \"#utility.yul\":3463:3469   */\n      dup5\n        /* \"#utility.yul\":3419:3490   */\n      tag_60\n      jump\t// in\n    tag_125:\n        /* \"#utility.yul\":3275:3497   */\n      swap3\n      swap2\n      pop\n      pop\n      jump\t// out\n        /* \"#utility.yul\":3503:3625   */\n    tag_61:\n        /* \"#utility.yul\":3576:3600   */\n      tag_127\n        /* \"#utility.yul\":3594:3599   */\n      dup2\n        /* \"#utility.yul\":3576:3600   */\n      tag_59\n      jump\t// in\n    tag_127:\n        /* \"#utility.yul\":3569:3574   */\n      dup2\n        /* \"#utility.yul\":3566:3601   */\n      eq\n        /* \"#utility.yul\":3556:3619   */\n      tag_128\n      jumpi\n        /* \"#utility.yul\":3615:3616   */\n      0x00\n        /* \"#utility.yul\":3612:3613   */\n      dup1\n        /* \"#utility.yul\":3605:3617   */\n      revert\n        /* \"#utility.yul\":3556:3619   */\n    tag_128:\n        /* \"#utility.yul\":3503:3625   */\n      pop\n      jump\t// out\n        /* \"#utility.yul\":3631:3770   */\n    tag_62:\n        /* \"#utility.yul\":3677:3682   */\n      0x00\n        /* \"#utility.yul\":3715:3721   */\n      dup2\n        /* \"#utility.yul\":3702:3722   */\n      calldataload\n        /* \"#utility.yul\":3693:3722   */\n      swap1\n      pop\n        /* \"#utility.yul\":3731:3764   */\n      tag_130\n        /* \"#utility.yul\":3758:3763   */\n      dup2\n        /* \"#utility.yul\":3731:3764   */\n      tag_61\n      jump\t// in\n    tag_130:\n        /* \"#utility.yul\":3631:3770   */\n      swap3\n      swap2\n      pop\n      pop\n      jump\t// out\n        /* \"#utility.yul\":3776:4105   */\n    tag_19:\n        /* \"#utility.yul\":3835:3841   */\n      0x00\n        /* \"#utility.yul\":3884:3886   */\n      0x20\n        /* \"#utility.yul\":3872:3881   */\n      dup3\n        /* \"#utility.yul\":3863:3870   */\n      dup5\n        /* \"#utility.yul\":3859:3882   */\n      sub\n        /* \"#utility.yul\":3855:3887   */\n      slt\n        /* \"#utility.yul\":3852:3971   */\n      iszero\n      tag_132\n      jumpi\n        /* \"#utility.yul\":3890:3969   */\n      tag_133\n      tag_47\n      jump\t// in\n    tag_133:\n        /* \"#utility.yul\":3852:3971   */\n    tag_132:\n        /* \"#utility.yul\":4010:4011   */\n      0x00\n        /* \"#utility.yul\":4035:4088   */\n      tag_134\n        /* \"#utility.yul\":4080:4087   */\n      dup5\n        /* \"#utility.yul\":4071:4077   */\n      dup3\n        /* \"#utility.yul\":4060:4069   */\n      dup6\n        /* \"#utility.yul\":4056:4078   */\n      add\n        /* \"#utility.yul\":4035:4088   */\n      tag_62\n      jump\t// in\n    tag_134:\n        /* \"#utility.yul\":4025:4088   */\n      swap2\n      pop\n        /* \"#utility.yul\":3981:4098   */\n      pop\n        /* \"#utility.yul\":3776:4105   */\n      swap3\n      swap2\n      pop\n      pop\n      jump\t// out\n        /* \"#utility.yul\":4111:4210   */\n    tag_63:\n        /* \"#utility.yul\":4163:4169   */\n      0x00\n        /* \"#utility.yul\":4197:4202   */\n      dup2\n        /* \"#utility.yul\":4191:4203   */\n      mload\n        /* \"#utility.yul\":4181:4203   */\n      swap1\n      pop\n        /* \"#utility.yul\":4111:4210   */\n      swap2\n      swap1\n      pop\n      jump\t// out\n        /* \"#utility.yul\":4216:4385   */\n    tag_64:\n        /* \"#utility.yul\":4300:4311   */\n      0x00\n        /* \"#utility.yul\":4334:4340   */\n      dup3\n        /* \"#utility.yul\":4329:4332   */\n      dup3\n        /* \"#utility.yul\":4322:4341   */\n      mstore\n        /* \"#utility.yul\":4374:4378   */\n      0x20\n        /* \"#utility.yul\":4369:4372   */\n      dup3\n        /* \"#utility.yul\":4365:4379   */\n      add\n        /* \"#utility.yul\":4350:4379   */\n      swap1\n      pop\n        /* \"#utility.yul\":4216:4385   */\n      swap3\n      swap2\n      pop\n      pop\n      jump\t// out\n        /* \"#utility.yul\":4391:4637   */\n    tag_65:\n        /* \"#utility.yul\":4472:4473   */\n      0x00\n        /* \"#utility.yul\":4482:4595   */\n    tag_138:\n        /* \"#utility.yul\":4496:4502   */\n      dup4\n        /* \"#utility.yul\":4493:4494   */\n      dup2\n        /* \"#utility.yul\":4490:4503   */\n      lt\n        /* \"#utility.yul\":4482:4595   */\n      iszero\n      tag_140\n      jumpi\n        /* \"#utility.yul\":4581:4582   */\n      dup1\n        /* \"#utility.yul\":4576:4579   */\n      dup3\n        /* \"#utility.yul\":4572:4583   */\n      add\n        /* \"#utility.yul\":4566:4584   */\n      mload\n        /* \"#utility.yul\":4562:4563   */\n      dup2\n        /* \"#utility.yul\":4557:4560   */\n      dup5\n        /* \"#utility.yul\":4553:4564   */\n      add\n        /* \"#utility.yul\":4546:4585   */\n      mstore\n        /* \"#utility.yul\":4518:4520   */\n      0x20\n        /* \"#utility.yul\":4515:4516   */\n      dup2\n        /* \"#utility.yul\":4511:4521   */\n      add\n        /* \"#utility.yul\":4506:4521   */\n      swap1\n      pop\n        /* \"#utility.yul\":4482:4595   */\n      jump(tag_138)\n    tag_140:\n        /* \"#utility.yul\":4629:4630   */\n      0x00\n        /* \"#utility.yul\":4620:4626   */\n      dup5\n        /* \"#utility.yul\":4615:4618   */\n      dup5\n        /* \"#utility.yul\":4611:4627   */\n      add\n        /* \"#utility.yul\":4604:4631   */\n      mstore\n        /* \"#utility.yul\":4453:4637   */\n      pop\n        /* \"#utility.yul\":4391:4637   */\n      pop\n      pop\n      pop\n      jump\t// out\n        /* \"#utility.yul\":4643:5020   */\n    tag_66:\n        /* \"#utility.yul\":4731:4734   */\n      0x00\n        /* \"#utility.yul\":4759:4798   */\n      tag_142\n        /* \"#utility.yul\":4792:4797   */\n      dup3\n        /* \"#utility.yul\":4759:4798   */\n      tag_63\n      jump\t// in\n    tag_142:\n        /* \"#utility.yul\":4814:4885   */\n      tag_143\n        /* \"#utility.yul\":4878:4884   */\n      dup2\n        /* \"#utility.yul\":4873:4876   */\n      dup6\n        /* \"#utility.yul\":4814:4885   */\n      tag_64\n      jump\t// in\n    tag_143:\n        /* \"#utility.yul\":4807:4885   */\n      swap4\n      pop\n        /* \"#utility.yul\":4894:4959   */\n      tag_144\n        /* \"#utility.yul\":4952:4958   */\n      dup2\n        /* \"#utility.yul\":4947:4950   */\n      dup6\n        /* \"#utility.yul\":4940:4944   */\n      0x20\n        /* \"#utility.yul\":4933:4938   */\n      dup7\n        /* \"#utility.yul\":4929:4945   */\n      add\n        /* \"#utility.yul\":4894:4959   */\n      tag_65\n      jump\t// in\n    tag_144:\n        /* \"#utility.yul\":4984:5013   */\n      tag_145\n        /* \"#utility.yul\":5006:5012   */\n      dup2\n        /* \"#utility.yul\":4984:5013   */\n      tag_51\n      jump\t// in\n    tag_145:\n        /* \"#utility.yul\":4979:4982   */\n      dup5\n        /* \"#utility.yul\":4975:5014   */\n      add\n        /* \"#utility.yul\":4968:5014   */\n      swap2\n      pop\n        /* \"#utility.yul\":4735:5020   */\n      pop\n        /* \"#utility.yul\":4643:5020   */\n      swap3\n      swap2\n      pop\n      pop\n      jump\t// out\n        /* \"#utility.yul\":5026:5449   */\n    tag_22:\n        /* \"#utility.yul\":5167:5171   */\n      0x00\n        /* \"#utility.yul\":5205:5207   */\n      0x40\n        /* \"#utility.yul\":5194:5203   */\n      dup3\n        /* \"#utility.yul\":5190:5208   */\n      add\n        /* \"#utility.yul\":5182:5208   */\n      swap1\n      pop\n        /* \"#utility.yul\":5218:5289   */\n      tag_147\n        /* \"#utility.yul\":5286:5287   */\n      0x00\n        /* \"#utility.yul\":5275:5284   */\n      dup4\n        /* \"#utility.yul\":5271:5288   */\n      add\n        /* \"#utility.yul\":5262:5268   */\n      dup6\n        /* \"#utility.yul\":5218:5289   */\n      tag_60\n      jump\t// in\n    tag_147:\n        /* \"#utility.yul\":5336:5345   */\n      dup2\n        /* \"#utility.yul\":5330:5334   */\n      dup2\n        /* \"#utility.yul\":5326:5346   */\n      sub\n        /* \"#utility.yul\":5321:5323   */\n      0x20\n        /* \"#utility.yul\":5310:5319   */\n      dup4\n        /* \"#utility.yul\":5306:5324   */\n      add\n        /* \"#utility.yul\":5299:5347   */\n      mstore\n        /* \"#utility.yul\":5364:5442   */\n      tag_148\n        /* \"#utility.yul\":5437:5441   */\n      dup2\n        /* \"#utility.yul\":5428:5434   */\n      dup5\n        /* \"#utility.yul\":5364:5442   */\n      tag_66\n      jump\t// in\n    tag_148:\n        /* \"#utility.yul\":5356:5442   */\n      swap1\n      pop\n        /* \"#utility.yul\":5026:5449   */\n      swap4\n      swap3\n      pop\n      pop\n      pop\n      jump\t// out\n        /* \"#utility.yul\":5455:6109   */\n    tag_28:\n        /* \"#utility.yul\":5533:5539   */\n      0x00\n        /* \"#utility.yul\":5541:5547   */\n      dup1\n        /* \"#utility.yul\":5590:5592   */\n      0x40\n        /* \"#utility.yul\":5578:5587   */\n      dup4\n        /* \"#utility.yul\":5569:5576   */\n      dup6\n        /* \"#utility.yul\":5565:5588   */\n      sub\n        /* \"#utility.yul\":5561:5593   */\n      slt\n        /* \"#utility.yul\":5558:5677   */\n      iszero\n      tag_150\n      jumpi\n        /* \"#utility.yul\":5596:5675   */\n      tag_151\n      tag_47\n      jump\t// in\n    tag_151:\n        /* \"#utility.yul\":5558:5677   */\n    tag_150:\n        /* \"#utility.yul\":5744:5745   */\n      0x00\n        /* \"#utility.yul\":5733:5742   */\n      dup4\n        /* \"#utility.yul\":5729:5746   */\n      add\n        /* \"#utility.yul\":5716:5747   */\n      calldataload\n        /* \"#utility.yul\":5774:5792   */\n      0xffffffffffffffff\n        /* \"#utility.yul\":5766:5772   */\n      dup2\n        /* \"#utility.yul\":5763:5793   */\n      gt\n        /* \"#utility.yul\":5760:5877   */\n      iszero\n      tag_152\n      jumpi\n        /* \"#utility.yul\":5796:5875   */\n      tag_153\n      tag_48\n      jump\t// in\n    tag_153:\n        /* \"#utility.yul\":5760:5877   */\n    tag_152:\n        /* \"#utility.yul\":5901:5964   */\n      tag_154\n        /* \"#utility.yul\":5956:5963   */\n      dup6\n        /* \"#utility.yul\":5947:5953   */\n      dup3\n        /* \"#utility.yul\":5936:5945   */\n      dup7\n        /* \"#utility.yul\":5932:5954   */\n      add\n        /* \"#utility.yul\":5901:5964   */\n      tag_58\n      jump\t// in\n    tag_154:\n        /* \"#utility.yul\":5891:5964   */\n      swap3\n      pop\n        /* \"#utility.yul\":5687:5974   */\n      pop\n        /* \"#utility.yul\":6013:6015   */\n      0x20\n        /* \"#utility.yul\":6039:6092   */\n      tag_155\n        /* \"#utility.yul\":6084:6091   */\n      dup6\n        /* \"#utility.yul\":6075:6081   */\n      dup3\n        /* \"#utility.yul\":6064:6073   */\n      dup7\n        /* \"#utility.yul\":6060:6082   */\n      add\n        /* \"#utility.yul\":6039:6092   */\n      tag_62\n      jump\t// in\n    tag_155:\n        /* \"#utility.yul\":6029:6092   */\n      swap2\n      pop\n        /* \"#utility.yul\":5984:6102   */\n      pop\n        /* \"#utility.yul\":5455:6109   */\n      swap3\n      pop\n      swap3\n      swap1\n      pop\n      jump\t// out\n        /* \"#utility.yul\":6115:6295   */\n    tag_67:\n        /* \"#utility.yul\":6163:6240   */\n      0x4e487b7100000000000000000000000000000000000000000000000000000000\n        /* \"#utility.yul\":6160:6161   */\n      0x00\n        /* \"#utility.yul\":6153:6241   */\n      mstore\n        /* \"#utility.yul\":6260:6264   */\n      0x22\n        /* \"#utility.yul\":6257:6258   */\n      0x04\n        /* \"#utility.yul\":6250:6265   */\n      mstore\n        /* \"#utility.yul\":6284:6288   */\n      0x24\n        /* \"#utility.yul\":6281:6282   */\n      0x00\n        /* \"#utility.yul\":6274:6289   */\n      revert\n        /* \"#utility.yul\":6301:6621   */\n    tag_34:\n        /* \"#utility.yul\":6345:6351   */\n      0x00\n        /* \"#utility.yul\":6382:6383   */\n      0x02\n        /* \"#utility.yul\":6376:6380   */\n      dup3\n        /* \"#utility.yul\":6372:6384   */\n      div\n        /* \"#utility.yul\":6362:6384   */\n      swap1\n      pop\n        /* \"#utility.yul\":6429:6430   */\n      0x01\n        /* \"#utility.yul\":6423:6427   */\n      dup3\n        /* \"#utility.yul\":6419:6431   */\n      and\n        /* \"#utility.yul\":6450:6468   */\n      dup1\n        /* \"#utility.yul\":6440:6521   */\n      tag_158\n      jumpi\n        /* \"#utility.yul\":6506:6510   */\n      0x7f\n        /* \"#utility.yul\":6498:6504   */\n      dup3\n        /* \"#utility.yul\":6494:6511   */\n      and\n        /* \"#utility.yul\":6484:6511   */\n      swap2\n      pop\n        /* \"#utility.yul\":6440:6521   */\n    tag_158:\n        /* \"#utility.yul\":6568:6570   */\n      0x20\n        /* \"#utility.yul\":6560:6566   */\n      dup3\n        /* \"#utility.yul\":6557:6571   */\n      lt\n        /* \"#utility.yul\":6537:6555   */\n      dup2\n        /* \"#utility.yul\":6534:6572   */\n      sub\n        /* \"#utility.yul\":6531:6615   */\n      tag_159\n      jumpi\n        /* \"#utility.yul\":6587:6605   */\n      tag_160\n      tag_67\n      jump\t// in\n    tag_160:\n        /* \"#utility.yul\":6531:6615   */\n    tag_159:\n        /* \"#utility.yul\":6352:6621   */\n      pop\n        /* \"#utility.yul\":6301:6621   */\n      swap2\n      swap1\n      pop\n      jump\t// out\n        /* \"#utility.yul\":6627:6768   */\n    tag_68:\n        /* \"#utility.yul\":6676:6680   */\n      0x00\n        /* \"#utility.yul\":6699:6702   */\n      dup2\n        /* \"#utility.yul\":6691:6702   */\n      swap1\n      pop\n        /* \"#utility.yul\":6722:6725   */\n      dup2\n        /* \"#utility.yul\":6719:6720   */\n      0x00\n        /* \"#utility.yul\":6712:6726   */\n      mstore\n        /* \"#utility.yul\":6756:6760   */\n      0x20\n        /* \"#utility.yul\":6753:6754   */\n      0x00\n        /* \"#utility.yul\":6743:6761   */\n      keccak256\n        /* \"#utility.yul\":6735:6761   */\n      swap1\n      pop\n        /* \"#utility.yul\":6627:6768   */\n      swap2\n      swap1\n      pop\n      jump\t// out\n        /* \"#utility.yul\":6774:6867   */\n    tag_69:\n        /* \"#utility.yul\":6811:6817   */\n      0x00\n        /* \"#utility.yul\":6858:6860   */\n      0x20\n        /* \"#utility.yul\":6853:6855   */\n      0x1f\n        /* \"#utility.yul\":6846:6851   */\n      dup4\n        /* \"#utility.yul\":6842:6856   */\n      add\n        /* \"#utility.yul\":6838:6861   */\n      div\n        /* \"#utility.yul\":6828:6861   */\n      swap1\n      pop\n        /* \"#utility.yul\":6774:6867   */\n      swap2\n      swap1\n      pop\n      jump\t// out\n        /* \"#utility.yul\":6873:6980   */\n    tag_70:\n        /* \"#utility.yul\":6917:6925   */\n      0x00\n        /* \"#utility.yul\":6967:6972   */\n      dup3\n        /* \"#utility.yul\":6961:6965   */\n      dup3\n        /* \"#utility.yul\":6957:6973   */\n      shl\n        /* \"#utility.yul\":6936:6973   */\n      swap1\n      pop\n        /* \"#utility.yul\":6873:6980   */\n      swap3\n      swap2\n      pop\n      pop\n      jump\t// out\n        /* \"#utility.yul\":6986:7379   */\n    tag_71:\n        /* \"#utility.yul\":7055:7061   */\n      0x00\n        /* \"#utility.yul\":7105:7106   */\n      0x08\n        /* \"#utility.yul\":7093:7103   */\n      dup4\n        /* \"#utility.yul\":7089:7107   */\n      mul\n        /* \"#utility.yul\":7128:7225   */\n      tag_165\n        /* \"#utility.yul\":7158:7224   */\n      0xffffffffffffffffffffffffffffffffffffffffffffffffffffffffffffffff\n        /* \"#utility.yul\":7147:7156   */\n      dup3\n        /* \"#utility.yul\":7128:7225   */\n      tag_70\n      jump\t// in\n    tag_165:\n        /* \"#utility.yul\":7246:7285   */\n      tag_166\n        /* \"#utility.yul\":7276:7284   */\n      dup7\n        /* \"#utility.yul\":7265:7274   */\n      dup4\n        /* \"#utility.yul\":7246:7285   */\n      tag_70\n      jump\t// in\n    tag_166:\n        /* \"#utility.yul\":7234:7285   */\n      swap6\n      pop\n        /* \"#utility.yul\":7318:7322   */\n      dup1\n        /* \"#utility.yul\":7314:7323   */\n      not\n        /* \"#utility.yul\":7307:7312   */\n      dup5\n        /* \"#utility.yul\":7303:7324   */\n      and\n        /* \"#utility.yul\":7294:7324   */\n      swap4\n      pop\n        /* \"#utility.yul\":7367:7371   */\n      dup1\n        /* \"#utility.yul\":7357:7365   */\n      dup7\n        /* \"#utility.yul\":7353:7372   */\n      and\n        /* \"#utility.yul\":7346:7351   */\n      dup5\n        /* \"#utility.yul\":7343:7373   */\n      or\n        /* \"#utility.yul\":7333:7373   */\n      swap3\n      pop\n        /* \"#utility.yul\":7062:7379   */\n      pop\n      pop\n        /* \"#utility.yul\":6986:7379   */\n      swap4\n      swap3\n      pop\n      pop\n      pop\n      jump\t// out\n        /* \"#utility.yul\":7385:7445   */\n    tag_72:\n        /* \"#utility.yul\":7413:7416   */\n      0x00\n        /* \"#utility.yul\":7434:7439   */\n      dup2\n        /* \"#utility.yul\":7427:7439   */\n      swap1\n      pop\n        /* \"#utility.yul\":7385:7445   */\n      swap2\n      swap1\n      pop\n      jump\t// out\n        /* \"#utility.yul\":7451:7593   */\n    tag_73:\n        /* \"#utility.yul\":7501:7510   */\n      0x00\n        /* \"#utility.yul\":7534:7587   */\n      tag_169\n        /* \"#utility.yul\":7552:7586   */\n      tag_170\n        /* \"#utility.yul\":7561:7585   */\n      tag_171\n        /* \"#utility.yul\":7579:7584   */\n      dup5\n        /* \"#utility.yul\":7561:7585   */\n      tag_59\n      jump\t// in\n    tag_171:\n        /* \"#utility.yul\":7552:7586   */\n      tag_72\n      jump\t// in\n    tag_170:\n        /* \"#utility.yul\":7534:7587   */\n      tag_59\n      jump\t// in\n    tag_169:\n        /* \"#utility.yul\":7521:7587   */\n      swap1\n      pop\n        /* \"#utility.yul\":7451:7593   */\n      swap2\n      swap1\n      pop\n      jump\t// out\n        /* \"#utility.yul\":7599:7674   */\n    tag_74:\n        /* \"#utility.yul\":7642:7645   */\n      0x00\n        /* \"#utility.yul\":7663:7668   */\n      dup2\n        /* \"#utility.yul\":7656:7668   */\n      swap1\n      pop\n        /* \"#utility.yul\":7599:7674   */\n      swap2\n      swap1\n      pop\n      jump\t// out\n        /* \"#utility.yul\":7680:7949   */\n    tag_75:\n        /* \"#utility.yul\":7790:7829   */\n      tag_174\n        /* \"#utility.yul\":7821:7828   */\n      dup4\n        /* \"#utility.yul\":7790:7829   */\n      tag_73\n      jump\t// in\n    tag_174:\n        /* \"#utility.yul\":7851:7942   */\n      tag_175\n        /* \"#utility.yul\":7900:7941   */\n      tag_176\n        /* \"#utility.yul\":7924:7940   */\n      dup3\n        /* \"#utility.yul\":7900:7941   */\n      tag_74\n      jump\t// in\n    tag_176:\n        /* \"#utility.yul\":7892:7898   */\n      dup5\n        /* \"#utility.yul\":7885:7889   */\n      dup5\n        /* \"#utility.yul\":7879:7890   */\n      sload\n        /* \"#utility.yul\":7851:7942   */\n      tag_71\n      jump\t// in\n    tag_175:\n        /* \"#utility.yul\":7845:7849   */\n      dup3\n        /* \"#utility.yul\":7838:7943   */\n      sstore\n        /* \"#utility.yul\":7756:7949   */\n      pop\n        /* \"#utility.yul\":7680:7949   */\n      pop\n      pop\n      pop\n      jump\t// out\n        /* \"#utility.yul\":7955:8028   */\n    tag_76:\n        /* \"#utility.yul\":8000:8003   */\n      0x00\n        /* \"#utility.yul\":7955:8028   */\n      swap1\n      jump\t// out\n        /* \"#utility.yul\":8034:8223   */\n    tag_77:\n        /* \"#utility.yul\":8111:8143   */\n      tag_179\n      tag_76\n      jump\t// in\n    tag_179:\n        /* \"#utility.yul\":8152:8217   */\n      tag_180\n        /* \"#utility.yul\":8210:8216   */\n      dup2\n        /* \"#utility.yul\":8202:8208   */\n      dup5\n        /* \"#utility.yul\":8196:8200   */\n      dup5\n        /* \"#utility.yul\":8152:8217   */\n      tag_75\n      jump\t// in\n    tag_180:\n        /* \"#utility.yul\":8087:8223   */\n      pop\n        /* \"#utility.yul\":8034:8223   */\n      pop\n      pop\n      jump\t// out\n        /* \"#utility.yul\":8229:8415   */\n    tag_78:\n        /* \"#utility.yul\":8289:8409   */\n    tag_182:\n        /* \"#utility.yul\":8306:8309   */\n      dup2\n        /* \"#utility.yul\":8299:8304   */\n      dup2\n        /* \"#utility.yul\":8296:8310   */\n      lt\n        /* \"#utility.yul\":8289:8409   */\n      iszero\n      tag_184\n      jumpi\n        /* \"#utility.yul\":8360:8399   */\n      tag_185\n        /* \"#utility.yul\":8397:8398   */\n      0x00\n        /* \"#utility.yul\":8390:8395   */\n      dup3\n        /* \"#utility.yul\":8360:8399   */\n      tag_77\n      jump\t// in\n    tag_185:\n        /* \"#utility.yul\":8333:8334   */\n      0x01\n        /* \"#utility.yul\":8326:8331   */\n      dup2\n        /* \"#utility.yul\":8322:8335   */\n      add\n        /* \"#utility.yul\":8313:8335   */\n      swap1\n      pop\n        /* \"#utility.yul\":8289:8409   */\n      jump(tag_182)\n    tag_184:\n        /* \"#utility.yul\":8229:8415   */\n      pop\n      pop\n      jump\t// out\n        /* \"#utility.yul\":8421:8964   */\n    tag_79:\n        /* \"#utility.yul\":8522:8524   */\n      0x1f\n        /* \"#utility.yul\":8517:8520   */\n      dup3\n        /* \"#utility.yul\":8514:8525   */\n      gt\n        /* \"#utility.yul\":8511:8957   */\n      iszero\n      tag_187\n      jumpi\n        /* \"#utility.yul\":8556:8594   */\n      tag_188\n        /* \"#utility.yul\":8588:8593   */\n      dup2\n        /* \"#utility.yul\":8556:8594   */\n      tag_68\n      jump\t// in\n    tag_188:\n        /* \"#utility.yul\":8640:8669   */\n      tag_189\n        /* \"#utility.yul\":8658:8668   */\n      dup5\n        /* \"#utility.yul\":8640:8669   */\n      tag_69\n      jump\t// in\n    tag_189:\n        /* \"#utility.yul\":8630:8638   */\n      dup2\n        /* \"#utility.yul\":8626:8670   */\n      add\n        /* \"#utility.yul\":8823:8825   */\n      0x20\n        /* \"#utility.yul\":8811:8821   */\n      dup6\n        /* \"#utility.yul\":8808:8826   */\n      lt\n        /* \"#utility.yul\":8805:8854   */\n      iszero\n      tag_190\n      jumpi\n        /* \"#utility.yul\":8844:8852   */\n      dup2\n        /* \"#utility.yul\":8829:8852   */\n      swap1\n      pop\n        /* \"#utility.yul\":8805:8854   */\n    tag_190:\n        /* \"#utility.yul\":8867:8947   */\n      tag_191\n        /* \"#utility.yul\":8923:8945   */\n      tag_192\n        /* \"#utility.yul\":8941:8944   */\n      dup6\n        /* \"#utility.yul\":8923:8945   */\n      tag_69\n      jump\t// in\n    tag_192:\n        /* \"#utility.yul\":8913:8921   */\n      dup4\n        /* \"#utility.yul\":8909:8946   */\n      add\n        /* \"#utility.yul\":8896:8907   */\n      dup3\n        /* \"#utility.yul\":8867:8947   */\n      tag_78\n      jump\t// in\n    tag_191:\n        /* \"#utility.yul\":8526:8957   */\n      pop\n      pop\n        /* \"#utility.yul\":8511:8957   */\n    tag_187:\n        /* \"#utility.yul\":8421:8964   */\n      pop\n      pop\n      pop\n      jump\t// out\n        /* \"#utility.yul\":8970:9087   */\n    tag_80:\n        /* \"#utility.yul\":9024:9032   */\n      0x00\n        /* \"#utility.yul\":9074:9079   */\n      dup3\n        /* \"#utility.yul\":9068:9072   */\n      dup3\n        /* \"#utility.yul\":9064:9080   */\n      shr\n        /* \"#utility.yul\":9043:9080   */\n      swap1\n      pop\n        /* \"#utility.yul\":8970:9087   */\n      swap3\n      swap2\n      pop\n      pop\n      jump\t// out\n        /* \"#utility.yul\":9093:9262   */\n    tag_81:\n        /* \"#utility.yul\":9137:9143   */\n      0x00\n        /* \"#utility.yul\":9170:9221   */\n      tag_195\n        /* \"#utility.yul\":9218:9219   */\n      0x00\n        /* \"#utility.yul\":9214:9220   */\n      not\n        /* \"#utility.yul\":9206:9211   */\n      dup5\n        /* \"#utility.yul\":9203:9204   */\n      0x08\n        /* \"#utility.yul\":9199:9212   */\n      mul\n        /* \"#utility.yul\":9170:9221   */\n      tag_80\n      jump\t// in\n    tag_195:\n        /* \"#utility.yul\":9166:9222   */\n      not\n        /* \"#utility.yul\":9251:9255   */\n      dup1\n        /* \"#utility.yul\":9245:9249   */\n      dup4\n        /* \"#utility.yul\":9241:9256   */\n      and\n        /* \"#utility.yul\":9231:9256   */\n      swap2\n      pop\n        /* \"#utility.yul\":9144:9262   */\n      pop\n        /* \"#utility.yul\":9093:9262   */\n      swap3\n      swap2\n      pop\n      pop\n      jump\t// out\n        /* \"#utility.yul\":9267:9562   */\n    tag_82:\n        /* \"#utility.yul\":9343:9347   */\n      0x00\n        /* \"#utility.yul\":9489:9518   */\n      tag_197\n        /* \"#utility.yul\":9514:9517   */\n      dup4\n        /* \"#utility.yul\":9508:9512   */\n      dup4\n        /* \"#utility.yul\":9489:9518   */\n      tag_81\n      jump\t// in\n    tag_197:\n        /* \"#utility.yul\":9481:9518   */\n      swap2\n      pop\n        /* \"#utility.yul\":9551:9554   */\n      dup3\n        /* \"#utility.yul\":9548:9549   */\n      0x02\n        /* \"#utility.yul\":9544:9555   */\n      mul\n        /* \"#utility.yul\":9538:9542   */\n      dup3\n        /* \"#utility.yul\":9535:9556   */\n      or\n        /* \"#utility.yul\":9527:9556   */\n      swap1\n      pop\n        /* \"#utility.yul\":9267:9562   */\n      swap3\n      swap2\n      pop\n      pop\n      jump\t// out\n        /* \"#utility.yul\":9567:10962   */\n    tag_43:\n        /* \"#utility.yul\":9684:9721   */\n      tag_199\n        /* \"#utility.yul\":9717:9720   */\n      dup3\n        /* \"#utility.yul\":9684:9721   */\n      tag_63\n      jump\t// in\n    tag_199:\n        /* \"#utility.yul\":9786:9804   */\n      0xffffffffffffffff\n        /* \"#utility.yul\":9778:9784   */\n      dup2\n        /* \"#utility.yul\":9775:9805   */\n      gt\n        /* \"#utility.yul\":9772:9828   */\n      iszero\n      tag_200\n      jumpi\n        /* \"#utility.yul\":9808:9826   */\n      tag_201\n      tag_52\n      jump\t// in\n    tag_201:\n        /* \"#utility.yul\":9772:9828   */\n    tag_200:\n        /* \"#utility.yul\":9852:9890   */\n      tag_202\n        /* \"#utility.yul\":9884:9888   */\n      dup3\n        /* \"#utility.yul\":9878:9889   */\n      sload\n        /* \"#utility.yul\":9852:9890   */\n      tag_34\n      jump\t// in\n    tag_202:\n        /* \"#utility.yul\":9937:10004   */\n      tag_203\n        /* \"#utility.yul\":9997:10003   */\n      dup3\n        /* \"#utility.yul\":9989:9995   */\n      dup3\n        /* \"#utility.yul\":9983:9987   */\n      dup6\n        /* \"#utility.yul\":9937:10004   */\n      tag_79\n      jump\t// in\n    tag_203:\n        /* \"#utility.yul\":10031:10032   */\n      0x00\n        /* \"#utility.yul\":10055:10059   */\n      0x20\n        /* \"#utility.yul\":10042:10059   */\n      swap1\n      pop\n        /* \"#utility.yul\":10087:10089   */\n      0x1f\n        /* \"#utility.yul\":10079:10085   */\n      dup4\n        /* \"#utility.yul\":10076:10090   */\n      gt\n        /* \"#utility.yul\":10104:10105   */\n      0x01\n        /* \"#utility.yul\":10099:10717   */\n      dup2\n      eq\n      tag_205\n      jumpi\n        /* \"#utility.yul\":10761:10762   */\n      0x00\n        /* \"#utility.yul\":10778:10784   */\n      dup5\n        /* \"#utility.yul\":10775:10852   */\n      iszero\n      tag_206\n      jumpi\n        /* \"#utility.yul\":10827:10836   */\n      dup3\n        /* \"#utility.yul\":10822:10825   */\n      dup8\n        /* \"#utility.yul\":10818:10837   */\n      add\n        /* \"#utility.yul\":10812:10838   */\n      mload\n        /* \"#utility.yul\":10803:10838   */\n      swap1\n      pop\n        /* \"#utility.yul\":10775:10852   */\n    tag_206:\n        /* \"#utility.yul\":10878:10945   */\n      tag_207\n        /* \"#utility.yul\":10938:10944   */\n      dup6\n        /* \"#utility.yul\":10931:10936   */\n      dup3\n        /* \"#utility.yul\":10878:10945   */\n      tag_82\n      jump\t// in\n    tag_207:\n        /* \"#utility.yul\":10872:10876   */\n      dup7\n        /* \"#utility.yul\":10865:10946   */\n      sstore\n        /* \"#utility.yul\":10734:10956   */\n      pop\n        /* \"#utility.yul\":10069:10956   */\n      jump(tag_204)\n        /* \"#utility.yul\":10099:10717   */\n    tag_205:\n        /* \"#utility.yul\":10151:10155   */\n      0x1f\n        /* \"#utility.yul\":10147:10156   */\n      not\n        /* \"#utility.yul\":10139:10145   */\n      dup5\n        /* \"#utility.yul\":10135:10157   */\n      and\n        /* \"#utility.yul\":10185:10222   */\n      tag_208\n        /* \"#utility.yul\":10217:10221   */\n      dup7\n        /* \"#utility.yul\":10185:10222   */\n      tag_68\n      jump\t// in\n    tag_208:\n        /* \"#utility.yul\":10244:10245   */\n      0x00\n        /* \"#utility.yul\":10258:10466   */\n    tag_209:\n        /* \"#utility.yul\":10272:10279   */\n      dup3\n        /* \"#utility.yul\":10269:10270   */\n      dup2\n        /* \"#utility.yul\":10266:10280   */\n      lt\n        /* \"#utility.yul\":10258:10466   */\n      iszero\n      tag_211\n      jumpi\n        /* \"#utility.yul\":10351:10360   */\n      dup5\n        /* \"#utility.yul\":10346:10349   */\n      dup10\n        /* \"#utility.yul\":10342:10361   */\n      add\n        /* \"#utility.yul\":10336:10362   */\n      mload\n        /* \"#utility.yul\":10328:10334   */\n      dup3\n        /* \"#utility.yul\":10321:10363   */\n      sstore\n        /* \"#utility.yul\":10402:10403   */\n      0x01\n        /* \"#utility.yul\":10394:10400   */\n      dup3\n        /* \"#utility.yul\":10390:10404   */\n      add\n        /* \"#utility.yul\":10380:10404   */\n      swap2\n      pop\n        /* \"#utility.yul\":10449:10451   */\n      0x20\n        /* \"#utility.yul\":10438:10447   */\n      dup6\n        /* \"#utility.yul\":10434:10452   */\n      add\n        /* \"#utility.yul\":10421:10452   */\n      swap5\n      pop\n        /* \"#utility.yul\":10295:10299   */\n      0x20\n        /* \"#utility.yul\":10292:10293   */\n      dup2\n        /* \"#utility.yul\":10288:10300   */\n      add\n        /* \"#utility.yul\":10283:10300   */\n      swap1\n      pop\n        /* \"#utility.yul\":10258:10466   */\n      jump(tag_209)\n    tag_211:\n        /* \"#utility.yul\":10494:10500   */\n      dup7\n        /* \"#utility.yul\":10485:10492   */\n      dup4\n        /* \"#utility.yul\":10482:10501   */\n      lt\n        /* \"#utility.yul\":10479:10658   */\n      iszero\n      tag_212\n      jumpi\n        /* \"#utility.yul\":10552:10561   */\n      dup5\n        /* \"#utility.yul\":10547:10550   */\n      dup10\n        /* \"#utility.yul\":10543:10562   */\n      add\n        /* \"#utility.yul\":10537:10563   */\n      mload\n        /* \"#utility.yul\":10595:10643   */\n      tag_213\n        /* \"#utility.yul\":10637:10641   */\n      0x1f\n        /* \"#utility.yul\":10629:10635   */\n      dup10\n        /* \"#utility.yul\":10625:10642   */\n      and\n        /* \"#utility.yul\":10614:10623   */\n      dup3\n        /* \"#utility.yul\":10595:10643   */\n      tag_81\n      jump\t// in\n    tag_213:\n        /* \"#utility.yul\":10587:10593   */\n      dup4\n        /* \"#utility.yul\":10580:10644   */\n      sstore\n        /* \"#utility.yul\":10502:10658   */\n      pop\n        /* \"#utility.yul\":10479:10658   */\n    tag_212:\n        /* \"#utility.yul\":10704:10705   */\n      0x01\n        /* \"#utility.yul\":10700:10701   */\n      0x02\n        /* \"#utility.yul\":10692:10698   */\n      dup9\n        /* \"#utility.yul\":10688:10702   */\n      mul\n        /* \"#utility.yul\":10684:10706   */\n      add\n        /* \"#utility.yul\":10678:10682   */\n      dup9\n        /* \"#utility.yul\":10671:10707   */\n      sstore\n        /* \"#utility.yul\":10106:10717   */\n      pop\n      pop\n      pop\n        /* \"#utility.yul\":10069:10956   */\n    tag_204:\n      pop\n        /* \"#utility.yul\":9659:10962   */\n      pop\n      pop\n      pop\n        /* \"#utility.yul\":9567:10962   */\n      pop\n      pop\n      jump\t// out\n        /* \"#utility.yul\":10968:11116   */\n    tag_83:\n        /* \"#utility.yul\":11070:11081   */\n      0x00\n        /* \"#utility.yul\":11107:11110   */\n      dup2\n        /* \"#utility.yul\":11092:11110   */\n      swap1\n      pop\n        /* \"#utility.yul\":10968:11116   */\n      swap3\n      swap2\n      pop\n      pop\n      jump\t// out\n        /* \"#utility.yul\":11122:11512   */\n    tag_84:\n        /* \"#utility.yul\":11228:11231   */\n      0x00\n        /* \"#utility.yul\":11256:11295   */\n      tag_216\n        /* \"#utility.yul\":11289:11294   */\n      dup3\n        /* \"#utility.yul\":11256:11295   */\n      tag_63\n      jump\t// in\n    tag_216:\n        /* \"#utility.yul\":11311:11400   */\n      tag_217\n        /* \"#utility.yul\":11393:11399   */\n      dup2\n        /* \"#utility.yul\":11388:11391   */\n      dup6\n        /* \"#utility.yul\":11311:11400   */\n      tag_83\n      jump\t// in\n    tag_217:\n        /* \"#utility.yul\":11304:11400   */\n      swap4\n      pop\n        /* \"#utility.yul\":11409:11474   */\n      tag_218\n        /* \"#utility.yul\":11467:11473   */\n      dup2\n        /* \"#utility.yul\":11462:11465   */\n      dup6\n        /* \"#utility.yul\":11455:11459   */\n      0x20\n        /* \"#utility.yul\":11448:11453   */\n      dup7\n        /* \"#utility.yul\":11444:11460   */\n      add\n        /* \"#utility.yul\":11409:11474   */\n      tag_65\n      jump\t// in\n    tag_218:\n        /* \"#utility.yul\":11499:11505   */\n      dup1\n        /* \"#utility.yul\":11494:11497   */\n      dup5\n        /* \"#utility.yul\":11490:11506   */\n      add\n        /* \"#utility.yul\":11483:11506   */\n      swap2\n      pop\n        /* \"#utility.yul\":11232:11512   */\n      pop\n        /* \"#utility.yul\":11122:11512   */\n      swap3\n      swap2\n      pop\n      pop\n      jump\t// out\n        /* \"#utility.yul\":11518:11793   */\n    tag_45:\n        /* \"#utility.yul\":11650:11653   */\n      0x00\n        /* \"#utility.yul\":11672:11767   */\n      tag_220\n        /* \"#utility.yul\":11763:11766   */\n      dup3\n        /* \"#utility.yul\":11754:11760   */\n      dup5\n        /* \"#utility.yul\":11672:11767   */\n      tag_84\n      jump\t// in\n    tag_220:\n        /* \"#utility.yul\":11665:11767   */\n      swap2\n      pop\n        /* \"#utility.yul\":11784:11787   */\n      dup2\n        /* \"#utility.yul\":11777:11787   */\n      swap1\n      pop\n        /* \"#utility.yul\":11518:11793   */\n      swap3\n      swap2\n      pop\n      pop\n      jump\t// out\n\n    auxdata: 0xa264697066735822122069584b8c5c4a2a1089478c59418360fe84013543f8ce1e3eeaa41f7b6c01373c64736f6c63430008120033\n}\n",
				"bytecode": {
					"linkReferences": {},
					"object": "608060405234801561001057600080fd5b5061093b806100206000396000f3fe608060405234801561001057600080fd5b50600436106100575760003560e01c806303a430091461005c5780632e64cec11461008c578063472c40b4146100aa5780636057361d146100db5780636f760f41146100f7575b600080fd5b610076600480360381019061007191906103f3565b610113565b6040516100839190610455565b60405180910390f35b610094610141565b6040516100a19190610455565b60405180910390f35b6100c460048036038101906100bf919061049c565b61014a565b6040516100d2929190610548565b60405180910390f35b6100f560048036038101906100f0919061049c565b610206565b005b610111600480360381019061010c9190610578565b610210565b005b6002818051602081018201805184825260208301602085012081835280955050505050506000915090505481565b60008054905090565b6001818154811061015a57600080fd5b906000526020600020906002020160009150905080600001549080600101805461018390610603565b80601f01602080910402602001604051908101604052809291908181526020018280546101af90610603565b80156101fc5780601f106101d1576101008083540402835291602001916101fc565b820191906000526020600020905b8154815290600101906020018083116101df57829003601f168201915b5050505050905082565b8060008190555050565b6001604051806040016040528083815260200184815250908060018154018082558091505060019003906000526020600020906002020160009091909190915060008201518160000155602082015181600101908161026f91906107e0565b5050508060028360405161028391906108ee565b9081526020016040518091039020819055505050565b6000604051905090565b600080fd5b600080fd5b600080fd5b600080fd5b6000601f19601f8301169050919050565b7f4e487b7100000000000000000000000000000000000000000000000000000000600052604160045260246000fd5b610300826102b7565b810181811067ffffffffffffffff8211171561031f5761031e6102c8565b5b80604052505050565b6000610332610299565b905061033e82826102f7565b919050565b600067ffffffffffffffff82111561035e5761035d6102c8565b5b610367826102b7565b9050602081019050919050565b82818337600083830152505050565b600061039661039184610343565b610328565b9050828152602081018484840111156103b2576103b16102b2565b5b6103bd848285610374565b509392505050565b600082601f8301126103da576103d96102ad565b5b81356103ea848260208601610383565b91505092915050565b600060208284031215610409576104086102a3565b5b600082013567ffffffffffffffff811115610427576104266102a8565b5b610433848285016103c5565b91505092915050565b6000819050919050565b61044f8161043c565b82525050565b600060208201905061046a6000830184610446565b92915050565b6104798161043c565b811461048457600080fd5b50565b60008135905061049681610470565b92915050565b6000602082840312156104b2576104b16102a3565b5b60006104c084828501610487565b91505092915050565b600081519050919050565b600082825260208201905092915050565b60005b838110156105035780820151818401526020810190506104e8565b60008484015250505050565b600061051a826104c9565b61052481856104d4565b93506105348185602086016104e5565b61053d816102b7565b840191505092915050565b600060408201905061055d6000830185610446565b818103602083015261056f818461050f565b90509392505050565b6000806040838503121561058f5761058e6102a3565b5b600083013567ffffffffffffffff8111156105ad576105ac6102a8565b5b6105b9858286016103c5565b92505060206105ca85828601610487565b9150509250929050565b7f4e487b7100000000000000000000000000000000000000000000000000000000600052602260045260246000fd5b6000600282049050600182168061061b57607f821691505b60208210810361062e5761062d6105d4565b5b50919050565b60008190508160005260206000209050919050565b60006020601f8301049050919050565b600082821b905092915050565b6000600883026106967fffffffffffffffffffffffffffffffffffffffffffffffffffffffffffffffff82610659565b6106a08683610659565b95508019841693508086168417925050509392505050565b6000819050919050565b60006106dd6106d86106d38461043c565b6106b8565b61043c565b9050919050565b6000819050919050565b6106f7836106c2565b61070b610703826106e4565b848454610666565b825550505050565b600090565b610720610713565b61072b8184846106ee565b505050565b5b8181101561074f57610744600082610718565b600181019050610731565b5050565b601f8211156107945761076581610634565b61076e84610649565b8101602085101561077d578190505b61079161078985610649565b830182610730565b50505b505050565b600082821c905092915050565b60006107b760001984600802610799565b1980831691505092915050565b60006107d083836107a6565b9150826002028217905092915050565b6107e9826104c9565b67ffffffffffffffff811115610802576108016102c8565b5b61080c8254610603565b610817828285610753565b600060209050601f83116001811461084a5760008415610838578287015190505b61084285826107c4565b8655506108aa565b601f19841661085886610634565b60005b828110156108805784890151825560018201915060208501945060208101905061085b565b8683101561089d5784890151610899601f8916826107a6565b8355505b6001600288020188555050505b505050505050565b600081905092915050565b60006108c8826104c9565b6108d281856108b2565b93506108e28185602086016104e5565b80840191505092915050565b60006108fa82846108bd565b91508190509291505056fea264697066735822122069584b8c5c4a2a1089478c59418360fe84013543f8ce1e3eeaa41f7b6c01373c64736f6c63430008120033",
					"opcodes": "PUSH1 0x80 PUSH1 0x40 MSTORE CALLVALUE DUP1 ISZERO PUSH2 0x10 JUMPI PUSH1 0x0 DUP1 REVERT JUMPDEST POP PUSH2 0x93B DUP1 PUSH2 0x20 PUSH1 0x0 CODECOPY PUSH1 0x0 RETURN INVALID PUSH1 0x80 PUSH1 0x40 MSTORE CALLVALUE DUP1 ISZERO PUSH2 0x10 JUMPI PUSH1 0x0 DUP1 REVERT JUMPDEST POP PUSH1 0x4 CALLDATASIZE LT PUSH2 0x57 JUMPI PUSH1 0x0 CALLDATALOAD PUSH1 0xE0 SHR DUP1 PUSH4 0x3A43009 EQ PUSH2 0x5C JUMPI DUP1 PUSH4 0x2E64CEC1 EQ PUSH2 0x8C JUMPI DUP1 PUSH4 0x472C40B4 EQ PUSH2 0xAA JUMPI DUP1 PUSH4 0x6057361D EQ PUSH2 0xDB JUMPI DUP1 PUSH4 0x6F760F41 EQ PUSH2 0xF7 JUMPI JUMPDEST PUSH1 0x0 DUP1 REVERT JUMPDEST PUSH2 0x76 PUSH1 0x4 DUP1 CALLDATASIZE SUB DUP2 ADD SWAP1 PUSH2 0x71 SWAP2 SWAP1 PUSH2 0x3F3 JUMP JUMPDEST PUSH2 0x113 JUMP JUMPDEST PUSH1 0x40 MLOAD PUSH2 0x83 SWAP2 SWAP1 PUSH2 0x455 JUMP JUMPDEST PUSH1 0x40 MLOAD DUP1 SWAP2 SUB SWAP1 RETURN JUMPDEST PUSH2 0x94 PUSH2 0x141 JUMP JUMPDEST PUSH1 0x40 MLOAD PUSH2 0xA1 SWAP2 SWAP1 PUSH2 0x455 JUMP JUMPDEST PUSH1 0x40 MLOAD DUP1 SWAP2 SUB SWAP1 RETURN JUMPDEST PUSH2 0xC4 PUSH1 0x4 DUP1 CALLDATASIZE SUB DUP2 ADD SWAP1 PUSH2 0xBF SWAP2 SWAP1 PUSH2 0x49C JUMP JUMPDEST PUSH2 0x14A JUMP JUMPDEST PUSH1 0x40 MLOAD PUSH2 0xD2 SWAP3 SWAP2 SWAP1 PUSH2 0x548 JUMP JUMPDEST PUSH1 0x40 MLOAD DUP1 SWAP2 SUB SWAP1 RETURN JUMPDEST PUSH2 0xF5 PUSH1 0x4 DUP1 CALLDATASIZE SUB DUP2 ADD SWAP1 PUSH2 0xF0 SWAP2 SWAP1 PUSH2 0x49C JUMP JUMPDEST PUSH2 0x206 JUMP JUMPDEST STOP JUMPDEST PUSH2 0x111 PUSH1 0x4 DUP1 CALLDATASIZE SUB DUP2 ADD SWAP1 PUSH2 0x10C SWAP2 SWAP1 PUSH2 0x578 JUMP JUMPDEST PUSH2 0x210 JUMP JUMPDEST STOP JUMPDEST PUSH1 0x2 DUP2 DUP1 MLOAD PUSH1 0x20 DUP2 ADD DUP3 ADD DUP1 MLOAD DUP5 DUP3 MSTORE PUSH1 0x20 DUP4 ADD PUSH1 0x20 DUP6 ADD KECCAK256 DUP2 DUP4 MSTORE DUP1 SWAP6 POP POP POP POP POP POP PUSH1 0x0 SWAP2 POP SWAP1 POP SLOAD DUP2 JUMP JUMPDEST PUSH1 0x0 DUP1 SLOAD SWAP1 POP SWAP1 JUMP JUMPDEST PUSH1 0x1 DUP2 DUP2 SLOAD DUP2 LT PUSH2 0x15A JUMPI PUSH1 0x0 DUP1 REVERT JUMPDEST SWAP1 PUSH1 0x0 MSTORE PUSH1 0x20 PUSH1 0x0 KECCAK256 SWAP1 PUSH1 0x2 MUL ADD PUSH1 0x0 SWAP2 POP SWAP1 POP DUP1 PUSH1 0x0 ADD SLOAD SWAP1 DUP1 PUSH1 0x1 ADD DUP1 SLOAD PUSH2 0x183 SWAP1 PUSH2 0x603 JUMP JUMPDEST DUP1 PUSH1 0x1F ADD PUSH1 0x20 DUP1 SWAP2 DIV MUL PUSH1 0x20 ADD PUSH1 0x40 MLOAD SWAP1 DUP2 ADD PUSH1 0x40 MSTORE DUP1 SWAP3 SWAP2 SWAP1 DUP2 DUP2 MSTORE PUSH1 0x20 ADD DUP3 DUP1 SLOAD PUSH2 0x1AF SWAP1 PUSH2 0x603 JUMP JUMPDEST DUP1 ISZERO PUSH2 0x1FC JUMPI DUP1 PUSH1 0x1F LT PUSH2 0x1D1 JUMPI PUSH2 0x100 DUP1 DUP4 SLOAD DIV MUL DUP4 MSTORE SWAP2 PUSH1 0x20 ADD SWAP2 PUSH2 0x1FC JUMP JUMPDEST DUP3 ADD SWAP2 SWAP1 PUSH1 0x0 MSTORE PUSH1 0x20 PUSH1 0x0 KECCAK256 SWAP1 JUMPDEST DUP2 SLOAD DUP2 MSTORE SWAP1 PUSH1 0x1 ADD SWAP1 PUSH1 0x20 ADD DUP1 DUP4 GT PUSH2 0x1DF JUMPI DUP3 SWAP1 SUB PUSH1 0x1F AND DUP3 ADD SWAP2 JUMPDEST POP POP POP POP POP SWAP1 POP DUP3 JUMP JUMPDEST DUP1 PUSH1 0x0 DUP2 SWAP1 SSTORE POP POP JUMP JUMPDEST PUSH1 0x1 PUSH1 0x40 MLOAD DUP1 PUSH1 0x40 ADD PUSH1 0x40 MSTORE DUP1 DUP4 DUP2 MSTORE PUSH1 0x20 ADD DUP5 DUP2 MSTORE POP SWAP1 DUP1 PUSH1 0x1 DUP2 SLOAD ADD DUP1 DUP3 SSTORE DUP1 SWAP2 POP POP PUSH1 0x1 SWAP1 SUB SWAP1 PUSH1 0x0 MSTORE PUSH1 0x20 PUSH1 0x0 KECCAK256 SWAP1 PUSH1 0x2 MUL ADD PUSH1 0x0 SWAP1 SWAP2 SWAP1 SWAP2 SWAP1 SWAP2 POP PUSH1 0x0 DUP3 ADD MLOAD DUP2 PUSH1 0x0 ADD SSTORE PUSH1 0x20 DUP3 ADD MLOAD DUP2 PUSH1 0x1 ADD SWAP1 DUP2 PUSH2 0x26F SWAP2 SWAP1 PUSH2 0x7E0 JUMP JUMPDEST POP POP POP DUP1 PUSH1 0x2 DUP4 PUSH1 0x40 MLOAD PUSH2 0x283 SWAP2 SWAP1 PUSH2 0x8EE JUMP JUMPDEST SWAP1 DUP2 MSTORE PUSH1 0x20 ADD PUSH1 0x40 MLOAD DUP1 SWAP2 SUB SWAP1 KECCAK256 DUP2 SWAP1 SSTORE POP POP POP JUMP JUMPDEST PUSH1 0x0 PUSH1 0x40 MLOAD SWAP1 POP SWAP1 JUMP JUMPDEST PUSH1 0x0 DUP1 REVERT JUMPDEST PUSH1 0x0 DUP1 REVERT JUMPDEST PUSH1 0x0 DUP1 REVERT JUMPDEST PUSH1 0x0 DUP1 REVERT JUMPDEST PUSH1 0x0 PUSH1 0x1F NOT PUSH1 0x1F DUP4 ADD AND SWAP1 POP SWAP2 SWAP1 POP JUMP JUMPDEST PUSH32 0x4E487B7100000000000000000000000000000000000000000000000000000000 PUSH1 0x0 MSTORE PUSH1 0x41 PUSH1 0x4 MSTORE PUSH1 0x24 PUSH1 0x0 REVERT JUMPDEST PUSH2 0x300 DUP3 PUSH2 0x2B7 JUMP JUMPDEST DUP2 ADD DUP2 DUP2 LT PUSH8 0xFFFFFFFFFFFFFFFF DUP3 GT OR ISZERO PUSH2 0x31F JUMPI PUSH2 0x31E PUSH2 0x2C8 JUMP JUMPDEST JUMPDEST DUP1 PUSH1 0x40 MSTORE POP POP POP JUMP JUMPDEST PUSH1 0x0 PUSH2 0x332 PUSH2 0x299 JUMP JUMPDEST SWAP1 POP PUSH2 0x33E DUP3 DUP3 PUSH2 0x2F7 JUMP JUMPDEST SWAP2 SWAP1 POP JUMP JUMPDEST PUSH1 0x0 PUSH8 0xFFFFFFFFFFFFFFFF DUP3 GT ISZERO PUSH2 0x35E JUMPI PUSH2 0x35D PUSH2 0x2C8 JUMP JUMPDEST JUMPDEST PUSH2 0x367 DUP3 PUSH2 0x2B7 JUMP JUMPDEST SWAP1 POP PUSH1 0x20 DUP2 ADD SWAP1 POP SWAP2 SWAP1 POP JUMP JUMPDEST DUP3 DUP2 DUP4 CALLDATACOPY PUSH1 0x0 DUP4 DUP4 ADD MSTORE POP POP POP JUMP JUMPDEST PUSH1 0x0 PUSH2 0x396 PUSH2 0x391 DUP5 PUSH2 0x343 JUMP JUMPDEST PUSH2 0x328 JUMP JUMPDEST SWAP1 POP DUP3 DUP2 MSTORE PUSH1 0x20 DUP2 ADD DUP5 DUP5 DUP5 ADD GT ISZERO PUSH2 0x3B2 JUMPI PUSH2 0x3B1 PUSH2 0x2B2 JUMP JUMPDEST JUMPDEST PUSH2 0x3BD DUP5 DUP3 DUP6 PUSH2 0x374 JUMP JUMPDEST POP SWAP4 SWAP3 POP POP POP JUMP JUMPDEST PUSH1 0x0 DUP3 PUSH1 0x1F DUP4 ADD SLT PUSH2 0x3DA JUMPI PUSH2 0x3D9 PUSH2 0x2AD JUMP JUMPDEST JUMPDEST DUP2 CALLDATALOAD PUSH2 0x3EA DUP5 DUP3 PUSH1 0x20 DUP7 ADD PUSH2 0x383 JUMP JUMPDEST SWAP2 POP POP SWAP3 SWAP2 POP POP JUMP JUMPDEST PUSH1 0x0 PUSH1 0x20 DUP3 DUP5 SUB SLT ISZERO PUSH2 0x409 JUMPI PUSH2 0x408 PUSH2 0x2A3 JUMP JUMPDEST JUMPDEST PUSH1 0x0 DUP3 ADD CALLDATALOAD PUSH8 0xFFFFFFFFFFFFFFFF DUP2 GT ISZERO PUSH2 0x427 JUMPI PUSH2 0x426 PUSH2 0x2A8 JUMP JUMPDEST JUMPDEST PUSH2 0x433 DUP5 DUP3 DUP6 ADD PUSH2 0x3C5 JUMP JUMPDEST SWAP2 POP POP SWAP3 SWAP2 POP POP JUMP JUMPDEST PUSH1 0x0 DUP2 SWAP1 POP SWAP2 SWAP1 POP JUMP JUMPDEST PUSH2 0x44F DUP2 PUSH2 0x43C JUMP JUMPDEST DUP3 MSTORE POP POP JUMP JUMPDEST PUSH1 0x0 PUSH1 0x20 DUP3 ADD SWAP1 POP PUSH2 0x46A PUSH1 0x0 DUP4 ADD DUP5 PUSH2 0x446 JUMP JUMPDEST SWAP3 SWAP2 POP POP JUMP JUMPDEST PUSH2 0x479 DUP2 PUSH2 0x43C JUMP JUMPDEST DUP2 EQ PUSH2 0x484 JUMPI PUSH1 0x0 DUP1 REVERT JUMPDEST POP JUMP JUMPDEST PUSH1 0x0 DUP2 CALLDATALOAD SWAP1 POP PUSH2 0x496 DUP2 PUSH2 0x470 JUMP JUMPDEST SWAP3 SWAP2 POP POP JUMP JUMPDEST PUSH1 0x0 PUSH1 0x20 DUP3 DUP5 SUB SLT ISZERO PUSH2 0x4B2 JUMPI PUSH2 0x4B1 PUSH2 0x2A3 JUMP JUMPDEST JUMPDEST PUSH1 0x0 PUSH2 0x4C0 DUP5 DUP3 DUP6 ADD PUSH2 0x487 JUMP JUMPDEST SWAP2 POP POP SWAP3 SWAP2 POP POP JUMP JUMPDEST PUSH1 0x0 DUP2 MLOAD SWAP1 POP SWAP2 SWAP1 POP JUMP JUMPDEST PUSH1 0x0 DUP3 DUP3 MSTORE PUSH1 0x20 DUP3 ADD SWAP1 POP SWAP3 SWAP2 POP POP JUMP JUMPDEST PUSH1 0x0 JUMPDEST DUP4 DUP2 LT ISZERO PUSH2 0x503 JUMPI DUP1 DUP3 ADD MLOAD DUP2 DUP5 ADD MSTORE PUSH1 0x20 DUP2 ADD SWAP1 POP PUSH2 0x4E8 JUMP JUMPDEST PUSH1 0x0 DUP5 DUP5 ADD MSTORE POP POP POP POP JUMP JUMPDEST PUSH1 0x0 PUSH2 0x51A DUP3 PUSH2 0x4C9 JUMP JUMPDEST PUSH2 0x524 DUP2 DUP6 PUSH2 0x4D4 JUMP JUMPDEST SWAP4 POP PUSH2 0x534 DUP2 DUP6 PUSH1 0x20 DUP7 ADD PUSH2 0x4E5 JUMP JUMPDEST PUSH2 0x53D DUP2 PUSH2 0x2B7 JUMP JUMPDEST DUP5 ADD SWAP2 POP POP SWAP3 SWAP2 POP POP JUMP JUMPDEST PUSH1 0x0 PUSH1 0x40 DUP3 ADD SWAP1 POP PUSH2 0x55D PUSH1 0x0 DUP4 ADD DUP6 PUSH2 0x446 JUMP JUMPDEST DUP2 DUP2 SUB PUSH1 0x20 DUP4 ADD MSTORE PUSH2 0x56F DUP2 DUP5 PUSH2 0x50F JUMP JUMPDEST SWAP1 POP SWAP4 SWAP3 POP POP POP JUMP JUMPDEST PUSH1 0x0 DUP1 PUSH1 0x40 DUP4 DUP6 SUB SLT ISZERO PUSH2 0x58F JUMPI PUSH2 0x58E PUSH2 0x2A3 JUMP JUMPDEST JUMPDEST PUSH1 0x0 DUP4 ADD CALLDATALOAD PUSH8 0xFFFFFFFFFFFFFFFF DUP2 GT ISZERO PUSH2 0x5AD JUMPI PUSH2 0x5AC PUSH2 0x2A8 JUMP JUMPDEST JUMPDEST PUSH2 0x5B9 DUP6 DUP3 DUP7 ADD PUSH2 0x3C5 JUMP JUMPDEST SWAP3 POP POP PUSH1 0x20 PUSH2 0x5CA DUP6 DUP3 DUP7 ADD PUSH2 0x487 JUMP JUMPDEST SWAP2 POP POP SWAP3 POP SWAP3 SWAP1 POP JUMP JUMPDEST PUSH32 0x4E487B7100000000000000000000000000000000000000000000000000000000 PUSH1 0x0 MSTORE PUSH1 0x22 PUSH1 0x4 MSTORE PUSH1 0x24 PUSH1 0x0 REVERT JUMPDEST PUSH1 0x0 PUSH1 0x2 DUP3 DIV SWAP1 POP PUSH1 0x1 DUP3 AND DUP1 PUSH2 0x61B JUMPI PUSH1 0x7F DUP3 AND SWAP2 POP JUMPDEST PUSH1 0x20 DUP3 LT DUP2 SUB PUSH2 0x62E JUMPI PUSH2 0x62D PUSH2 0x5D4 JUMP JUMPDEST JUMPDEST POP SWAP2 SWAP1 POP JUMP JUMPDEST PUSH1 0x0 DUP2 SWAP1 POP DUP2 PUSH1 0x0 MSTORE PUSH1 0x20 PUSH1 0x0 KECCAK256 SWAP1 POP SWAP2 SWAP1 POP JUMP JUMPDEST PUSH1 0x0 PUSH1 0x20 PUSH1 0x1F DUP4 ADD DIV SWAP1 POP SWAP2 SWAP1 POP JUMP JUMPDEST PUSH1 0x0 DUP3 DUP3 SHL SWAP1 POP SWAP3 SWAP2 POP POP JUMP JUMPDEST PUSH1 0x0 PUSH1 0x8 DUP4 MUL PUSH2 0x696 PUSH32 0xFFFFFFFFFFFFFFFFFFFFFFFFFFFFFFFFFFFFFFFFFFFFFFFFFFFFFFFFFFFFFFFF DUP3 PUSH2 0x659 JUMP JUMPDEST PUSH2 0x6A0 DUP7 DUP4 PUSH2 0x659 JUMP JUMPDEST SWAP6 POP DUP1 NOT DUP5 AND SWAP4 POP DUP1 DUP7 AND DUP5 OR SWAP3 POP POP POP SWAP4 SWAP3 POP POP POP JUMP JUMPDEST PUSH1 0x0 DUP2 SWAP1 POP SWAP2 SWAP1 POP JUMP JUMPDEST PUSH1 0x0 PUSH2 0x6DD PUSH2 0x6D8 PUSH2 0x6D3 DUP5 PUSH2 0x43C JUMP JUMPDEST PUSH2 0x6B8 JUMP JUMPDEST PUSH2 0x43C JUMP JUMPDEST SWAP1 POP SWAP2 SWAP1 POP JUMP JUMPDEST PUSH1 0x0 DUP2 SWAP1 POP SWAP2 SWAP1 POP JUMP JUMPDEST PUSH2 0x6F7 DUP4 PUSH2 0x6C2 JUMP JUMPDEST PUSH2 0x70B PUSH2 0x703 DUP3 PUSH2 0x6E4 JUMP JUMPDEST DUP5 DUP5 SLOAD PUSH2 0x666 JUMP JUMPDEST DUP3 SSTORE POP POP POP POP JUMP JUMPDEST PUSH1 0x0 SWAP1 JUMP JUMPDEST PUSH2 0x720 PUSH2 0x713 JUMP JUMPDEST PUSH2 0x72B DUP2 DUP5 DUP5 PUSH2 0x6EE JUMP JUMPDEST POP POP POP JUMP JUMPDEST JUMPDEST DUP2 DUP2 LT ISZERO PUSH2 0x74F JUMPI PUSH2 0x744 PUSH1 0x0 DUP3 PUSH2 0x718 JUMP JUMPDEST PUSH1 0x1 DUP2 ADD SWAP1 POP PUSH2 0x731 JUMP JUMPDEST POP POP JUMP JUMPDEST PUSH1 0x1F DUP3 GT ISZERO PUSH2 0x794 JUMPI PUSH2 0x765 DUP2 PUSH2 0x634 JUMP JUMPDEST PUSH2 0x76E DUP5 PUSH2 0x649 JUMP JUMPDEST DUP2 ADD PUSH1 0x20 DUP6 LT ISZERO PUSH2 0x77D JUMPI DUP2 SWAP1 POP JUMPDEST PUSH2 0x791 PUSH2 0x789 DUP6 PUSH2 0x649 JUMP JUMPDEST DUP4 ADD DUP3 PUSH2 0x730 JUMP JUMPDEST POP POP JUMPDEST POP POP POP JUMP JUMPDEST PUSH1 0x0 DUP3 DUP3 SHR SWAP1 POP SWAP3 SWAP2 POP POP JUMP JUMPDEST PUSH1 0x0 PUSH2 0x7B7 PUSH1 0x0 NOT DUP5 PUSH1 0x8 MUL PUSH2 0x799 JUMP JUMPDEST NOT DUP1 DUP4 AND SWAP2 POP POP SWAP3 SWAP2 POP POP JUMP JUMPDEST PUSH1 0x0 PUSH2 0x7D0 DUP4 DUP4 PUSH2 0x7A6 JUMP JUMPDEST SWAP2 POP DUP3 PUSH1 0x2 MUL DUP3 OR SWAP1 POP SWAP3 SWAP2 POP POP JUMP JUMPDEST PUSH2 0x7E9 DUP3 PUSH2 0x4C9 JUMP JUMPDEST PUSH8 0xFFFFFFFFFFFFFFFF DUP2 GT ISZERO PUSH2 0x802 JUMPI PUSH2 0x801 PUSH2 0x2C8 JUMP JUMPDEST JUMPDEST PUSH2 0x80C DUP3 SLOAD PUSH2 0x603 JUMP JUMPDEST PUSH2 0x817 DUP3 DUP3 DUP6 PUSH2 0x753 JUMP JUMPDEST PUSH1 0x0 PUSH1 0x20 SWAP1 POP PUSH1 0x1F DUP4 GT PUSH1 0x1 DUP2 EQ PUSH2 0x84A JUMPI PUSH1 0x0 DUP5 ISZERO PUSH2 0x838 JUMPI DUP3 DUP8 ADD MLOAD SWAP1 POP JUMPDEST PUSH2 0x842 DUP6 DUP3 PUSH2 0x7C4 JUMP JUMPDEST DUP7 SSTORE POP PUSH2 0x8AA JUMP JUMPDEST PUSH1 0x1F NOT DUP5 AND PUSH2 0x858 DUP7 PUSH2 0x634 JUMP JUMPDEST PUSH1 0x0 JUMPDEST DUP3 DUP2 LT ISZERO PUSH2 0x880 JUMPI DUP5 DUP10 ADD MLOAD DUP3 SSTORE PUSH1 0x1 DUP3 ADD SWAP2 POP PUSH1 0x20 DUP6 ADD SWAP5 POP PUSH1 0x20 DUP2 ADD SWAP1 POP PUSH2 0x85B JUMP JUMPDEST DUP7 DUP4 LT ISZERO PUSH2 0x89D JUMPI DUP5 DUP10 ADD MLOAD PUSH2 0x899 PUSH1 0x1F DUP10 AND DUP3 PUSH2 0x7A6 JUMP JUMPDEST DUP4 SSTORE POP JUMPDEST PUSH1 0x1 PUSH1 0x2 DUP9 MUL ADD DUP9 SSTORE POP POP POP JUMPDEST POP POP POP POP POP POP JUMP JUMPDEST PUSH1 0x0 DUP2 SWAP1 POP SWAP3 SWAP2 POP POP JUMP JUMPDEST PUSH1 0x0 PUSH2 0x8C8 DUP3 PUSH2 0x4C9 JUMP JUMPDEST PUSH2 0x8D2 DUP2 DUP6 PUSH2 0x8B2 JUMP JUMPDEST SWAP4 POP PUSH2 0x8E2 DUP2 DUP6 PUSH1 0x20 DUP7 ADD PUSH2 0x4E5 JUMP JUMPDEST DUP1 DUP5 ADD SWAP2 POP POP SWAP3 SWAP2 POP POP JUMP JUMPDEST PUSH1 0x0 PUSH2 0x8FA DUP3 DUP5 PUSH2 0x8BD JUMP JUMPDEST SWAP2 POP DUP2 SWAP1 POP SWAP3 SWAP2 POP POP JUMP INVALID LOG2 PUSH5 0x6970667358 0x22 SLT KECCAK256 PUSH10 0x584B8C5C4A2A1089478C MSIZE COINBASE DUP4 PUSH1 0xFE DUP5 ADD CALLDATALOAD NUMBER 0xF8 0xCE 0x1E RETURNDATACOPY 0xEA LOG4 0x1F PUSH28 0x6C01373C64736F6C6343000812003300000000000000000000000000 "
				},
				"gasEstimates": {
					"creation": {
						"codeDepositCost": "472600",
						"executionCost": "505",
						"totalCost": "473105"
					},
					"external": {
						"ListOfPeople(uint256)": "infinite",
						"addPerson(string,uint256)": "infinite",
						"nameTofavoriteNumber(string)": "infinite",
						"retrieve()": "2437",
						"store(uint256)": "22564"
					}
				},
				"methodIdentifiers": {
					"ListOfPeople(uint256)": "472c40b4",
					"addPerson(string,uint256)": "6f760f41",
					"nameTofavoriteNumber(string)": "03a43009",
					"retrieve()": "2e64cec1",
					"store(uint256)": "6057361d"
				}
			},
			"storageLayout": {
				"storage": [
					{
						"astId": 3,
						"contract": "SimpleStorage.sol:SimpleStorage",
						"label": "myfavoriteNumber",
						"offset": 0,
						"slot": "0",
						"type": "t_uint256"
					},
					{
						"astId": 12,
						"contract": "SimpleStorage.sol:SimpleStorage",
						"label": "ListOfPeople",
						"offset": 0,
						"slot": "1",
						"type": "t_array(t_struct(Person)8_storage)dyn_storage"
					},
					{
						"astId": 16,
						"contract": "SimpleStorage.sol:SimpleStorage",
						"label": "nameTofavoriteNumber",
						"offset": 0,
						"slot": "2",
						"type": "t_mapping(t_string_memory_ptr,t_uint256)"
					}
				],
				"types": {
					"t_array(t_struct(Person)8_storage)dyn_storage": {
						"base": "t_struct(Person)8_storage",
						"encoding": "dynamic_array",
						"label": "struct SimpleStorage.Person[]",
						"numberOfBytes": "32"
					},
					"t_mapping(t_string_memory_ptr,t_uint256)": {
						"encoding": "mapping",
						"key": "t_string_memory_ptr",
						"label": "mapping(string => uint256)",
						"numberOfBytes": "32",
						"value": "t_uint256"
					},
					"t_string_memory_ptr": {
						"encoding": "bytes",
						"label": "string",
						"numberOfBytes": "32"
					},
					"t_string_storage": {
						"encoding": "bytes",
						"label": "string",
						"numberOfBytes": "32"
					},
					"t_struct(Person)8_storage": {
						"encoding": "inplace",
						"label": "struct SimpleStorage.Person",
						"members": [
							{
								"astId": 5,
								"contract": "SimpleStorage.sol:SimpleStorage",
								"label": "favoriteNumber",
								"offset": 0,
								"slot": "0",
								"type": "t_uint256"
							},
							{
								"astId": 7,
								"contract": "SimpleStorage.sol:SimpleStorage",
								"label": "name",
								"offset": 0,
								"slot": "1",
								"type": "t_string_storage"
							}
						],
						"numberOfBytes": "64"
					},
					"t_uint256": {
						"encoding": "inplace",
						"label": "uint256",
						"numberOfBytes": "32"
					}
				}
			},
			"userdoc": {
				"kind": "user",
				"methods": {},
				"version": 1
			}
		}
	}
}